{
  "contractName": "AdvancedStorage",
  "abi": [
    {
      "constant": true,
      "inputs": [
        {
          "name": "",
          "type": "uint256"
        }
      ],
      "name": "ids",
      "outputs": [
        {
          "name": "",
          "type": "uint256"
        }
      ],
      "payable": false,
      "stateMutability": "view",
      "type": "function"
    },
    {
      "constant": false,
      "inputs": [
        {
          "name": "id",
          "type": "uint256"
        }
      ],
      "name": "add",
      "outputs": [],
      "payable": false,
      "stateMutability": "nonpayable",
      "type": "function"
    },
    {
      "constant": true,
      "inputs": [
        {
          "name": "position",
          "type": "uint256"
        }
      ],
      "name": "get",
      "outputs": [
        {
          "name": "",
          "type": "uint256"
        }
      ],
      "payable": false,
      "stateMutability": "view",
      "type": "function"
    },
    {
      "constant": true,
      "inputs": [],
      "name": "getall",
      "outputs": [
        {
          "name": "",
          "type": "uint256[]"
        }
      ],
      "payable": false,
      "stateMutability": "view",
      "type": "function"
    },
    {
      "constant": true,
      "inputs": [],
      "name": "length",
      "outputs": [
        {
          "name": "",
          "type": "uint256"
        }
      ],
      "payable": false,
      "stateMutability": "view",
      "type": "function"
    }
  ],
  "bytecode": "0x608060405234801561001057600080fd5b506102e6806100206000396000f3fe60806040526004361061006d576000357c0100000000000000000000000000000000000000000000000000000000900463ffffffff1680631003e2d2146100725780631f7b6d32146100ad57806390974795146100d85780639507d39a14610144578063fac333ac14610193575b600080fd5b34801561007e57600080fd5b506100ab6004803603602081101561009557600080fd5b81019080803590602001909291905050506101e2565b005b3480156100b957600080fd5b506100c2610211565b6040518082815260200191505060405180910390f35b3480156100e457600080fd5b506100ed61021d565b6040518080602001828103825283818151815260200191508051906020019060200280838360005b83811015610130578082015181840152602081019050610115565b505050509050019250505060405180910390f35b34801561015057600080fd5b5061017d6004803603602081101561016757600080fd5b8101908080359060200190929190505050610275565b6040518082815260200191505060405180910390f35b34801561019f57600080fd5b506101cc600480360360208110156101b657600080fd5b8101908080359060200190929190505050610297565b6040518082815260200191505060405180910390f35b600081908060018154018082558091505090600182039060005260206000200160009091929091909150555050565b60008080549050905090565b6060600080548060200260200160405190810160405280929190818152602001828054801561026b57602002820191906000526020600020905b815481526020019060010190808311610257575b5050505050905090565b6000808281548110151561028557fe5b90600052602060002001549050919050565b6000818154811015156102a657fe5b90600052602060002001600091509050548156fea165627a7a72305820ee53648c6b5efdb464b1ac1e4df1e3528ed71796553e87407081e48dd7495bb30029",
  "source": "pragma solidity ^0.5.0;\n\ncontract AdvancedStorage {\n\n    uint[] public ids;\n    \n    function add(uint id) public {\n        ids.push(id);\n    }\n\n    function get(uint position) view public returns(uint) {\n        return ids[position];\n    }\n\n\n    function getall() view public returns(uint[] memory){\n        return ids;\n    }\n\n    function length() view public returns(uint){\n        return ids.length;\n    }\n\n}",
  "sourcePath": "/home/shpintz/hdd/learning/30-day-solidity/contracts/AdvancedStorage.sol",
  "compiler": {
    "name": "solc",
    "version": "0.5.0+commit.1d4f565a.Emscripten.clang"
  },
  "schemaVersion": "3.4.3",
  "updatedAt": "2021-12-09T19:30:01.436Z",
  "networkType": "ethereum",
  "devdoc": {
    "methods": {}
  },
  "userdoc": {
    "methods": {}
  }
}